:020000040800F2
:10000000003F012055020008394B0008434B00080F
:10001000514B00085F4B00086D4B000800000000CA
:100020000000000000000000000000009D0100082A
:100030007B4B000800000000F10100083147000878
:100040006F0200086F0200086F0200086F020008CC
:100050006F0200086F0200086F0200086F020008BC
:100060006F0200086F0200086F0200086F020008AC
:100070006F0200086F0200086F0200086F0200089C
:100080006F0200086F0200086F0200086F0200088C
:100090006F0200086F0200086F0200086F0200087C
:1000A0006F0200086F0200086F0200086F0200086C
:1000B000276C0008339200086F0200086F020008E6
:1000C0006F0200086F0200086F0200086F0200084C
:1000D0006F020008176A00086F0200086F0200082C
:1000E0006F0200086F0200086F0200086F0200082C
:1000F0006F0200086F0200086F0200086F0200081C
:100100006F0200086F020008756D00086F0200089A
:100110006F0200086F0200086F0200086F020008FB
:100120006F0200086F0200086F0200086F020008EB
:100130006F0200086F0200086F0200086F020008DB
:100140006F0200086F0200086F0200086F020008CB
:100150006F0200086F0200086F0200086F020008BB
:100160006F0200086F0200086F0200086F020008AB
:100170006F0200086F0200086F0200086F0200089B
:100180006F0200086F020008DFF80CD00CF0CCFB07
:1001900000480047E34A0008003F01202A4B196845
:1001A0000868B0E8F04F80F30988BFF36F8F4FF015
:1001B000000080F3118870470000000006480068C6
:1001C000006880F3088862B661B6BFF34F8FBFF353
:1001D0006F8F00DF00BF00BF08ED00E0DFF80C000C
:1001E000016841F470010160704700BF88ED00E0D4
:1001F000EFF30980BFF36F8F134B1A681EF0100FD7
:1002000008BF20ED108A20E9F04F106008B44FF0CD
:10021000500080F31188BFF34F8FBFF36F8F03F04F
:10022000AEFA4FF0000080F3118808BC1968086826
:10023000B0E8F04F1EF0100F08BFB0EC108A80F34A
:100240000988BFF36F8F704724000020EFF305800B
:10025000704700000648804706480047FEE7FEE773
:10026000FEE7FEE7FEE7FEE7FEE7FEE7FEE7FEE766
:1002700055030008890100080CB50020019000908A
:100280007648006840F480307449086000BF7348C5
:10029000006800F4003000900198401C0190009824
:1002A00018B90198B0F5A04FF1D16C48006800F47E
:1002B000003010B10120009001E000200090009873
:1002C000012846D165484030006840F080506349BD
:1002D000403108606248006840F44040604908606E
:1002E0005E48083000685D490831086008460068CB
:1002F00040F4004008600846006840F4A0500860E0
:100300005848091F0860081F006840F08070091FE6
:10031000086000BF5148006800F000700028F9D064
:1003200040F20570504908604C480830006820F0E1
:1003300003004A49083108600846006840F002009E
:10034000086000BF45480830006800F00C0008282D
:10035000F8D10CBD10B54548006840F47000434921
:1003600008603E48006840F001003C4908600020F9
:100370003A4908310860394800683D490840374922
:1003800008603C48091D0860081F006820F48020B0
:10039000091F0860002031490C310860FFF76CFF2D
:1003A0004FF0006031498039086010BD70B5002001
:1003B0000022022300240221284D08352D6805F073
:1003C0000C0020B1042806D0082834D107E02A4DBB
:1003D0002A4E356033E02A4D284E35602FE01F4D00
:1003E0002D1D2D68C5F380541C4D2D1D2D6805F065
:1003F0003F0154B1224DB5FBF1F5184E361D36685C
:10040000C6F3881605FB06F209E01B4DB5FBF1F5B6
:10041000124E361D3668C6F3881605FB06F20F4DE0
:100420002D1D2D68C5F301456D1C6B00B2FBF3F566
:10043000124E356003E0104D104E356000BF00BF16
:10044000064D08352D68C5F303150E4E705D0B4D36
:100450002D68C540094E356070BD0000003802406F
:1004600000700040195A4007003C024088ED00E04F
:10047000FFFFF6FE103000240024F40000000020EE
:1004800040787D010400002032490143324A116066
:10049000704770B5002100230F22C4781CB32E4C86
:1004A000246804F4E064C4F5E064C4F30721C1F1F6
:1004B0000404E3B20A4144789C40E1B284781440D9
:1004C00021430C07210E254C05786155047804F072
:1004D0001F050124AC4005786D11AD0005F1E02544
:1004E000C5F8004109E0047804F01F050124AC4080
:1004F0001B4D0678761145F8264070BD194A0A4012
:100500000243154B1B1F1A60704739B1124A121D66
:1005100012680243104B1B1D1A6006E00E4A121DA2
:10052000126882430C4B1B1D1A607047042808D1C7
:100530004FF0E021096941F004014FF0E022116120
:1005400007E04FF0E021096921F004014FF0E022BB
:10055000116170470000FA050CED00E000E400E0D6
:1005600080E100E080FFFF1FFE4A1070704730B14D
:10057000FC49096841F48071FA4A116005E0F949C3
:10058000096821F48071F74A1160704730B1F5496C
:10059000096841F40071F34A116005E0F149096806
:1005A00021F40071EF4A1160704730B1ED490968DC
:1005B00041F48061EB4A116005E0EA49096821F4E1
:1005C0008061E84A11607047E648006840F40060C6
:1005D000E44908607047E348006840F48050E1490E
:1005E00008607047DF481030006800F0004028B114
:1005F000DD48DC49091D0860DC4808607047D948BF
:100600001030006840F00040D64910310860704753
:100610000920D4490C31096801F48031B1F5803FDB
:1006200001D1012020E0CF490C31096801F010010F
:1006300009B1062018E0CB490C31096801F480713A
:1006400009B1022010E0C7490C31096801F0E0014E
:1006500009B1072008E0C3490C31096801F0020123
:1006600009B1082000E00920704708B50920009072
:10067000FFF7CEFF009002E0FFF7CAFF00909DF861
:1006800000000128F8D09DF8000008BD70B50446B0
:100690000A460026092502B909E0012A01D11602FD
:1006A00005E0022A01D1160201E04FF44076FFF77F
:1006B000DCFF0546092D2DD1AA481030006820F432
:1006C0004070A8491031086008460068304308604F
:1006D0000846006820F0F80008600846006844F00A
:1006E000020108439F49103108600846006840F441
:1006F00080300860FFF7B9FF05469A48103000685F
:1007000020F002009749103108600846006820F088
:10071000F8000860284670BD30B50246002509245F
:10072000FFF7A3FF044602B909E0012A01D115022F
:1007300005E0022A01D1150201E04FF44075092CB1
:1007400020D188481030006820F44070854910316D
:10075000086008460068284308600846006840F0C2
:10076000040008600846006840F480300860FFF725
:100770007CFF04467B481030006820F00400794973
:1007800010310860204630BD30B5024600250924EE
:10079000FFF76BFF044602B909E0012A01D11502F7
:1007A00005E0022A01D1150201E04FF44075092C41
:1007B00020D16C481030006820F440706949103135
:1007C000086008460068284308600846006840F052
:1007D000040008600846006840F480300860FFF7B5
:1007E00044FF04465F481030006820F004005D4973
:1007F00010310860204630BD30B50246002509247E
:10080000FFF733FF044602B909E0012A01D11502BE
:1008100005E0022A01D1150201E04FF44075092CD0
:1008200020D150481030006820F440704D491031FC
:10083000086008460068284308600846006840F4DD
:10084000004008600846006840F480300860FFF708
:100850000CFF044643481030006820F40040414932
:1008600010310860204630BD70B5064614461D465E
:100870000922FFF7FAFE0246092A1ED13948103034
:10088000006820F44070374910310860084600685D
:1008900040F4407008600846006840F001000860BD
:1008A00034607560FFF7E1FE02462E4810300068A4
:1008B00020F001002B4910310860104670BD30B5A2
:1008C00002460C460925FFF7D0FE0546092D1DD12D
:1008D00024481030006820F440702249103108602C
:1008E0000846006840F4007008600846006840F060
:1008F000010008601460FFF7B8FE05461948103083
:10090000006820F00100174910310860284630BD0A
:1009100030B502460C460925FFF7A7FE0546092D0E
:100920001DD110481030006820F440700D4910317E
:1009300008600846006840F4807008600846006857
:1009400040F0010008601480FFF78FFE054605485F
:100950001030006820F0010002491031086028467C
:1009600030BD0000003C024023016745AB89EFCD5C
:1009700030B502460C460925FFF777FE0546092DDE
:1009800017D19B48006820F44070994908600846D8
:10099000006808600846006840F0010008601470B4
:1009A000FFF763FE05469248006820F00100904979
:1009B0000860284630BD8E48001D006800F0010028
:1009C00028B18C488A49083908608B48086070470C
:1009D0008748001D006840F001008549091D086036
:1009E000704730B502460C460925FFF73EFE054626
:1009F000092D10D13CB17E48801D008890437C4970
:100A0000891D088007E07A48801D008891B208435C
:100A10007749891D088030BD30B502460C4609254E
:100A2000FFF723FE0546092D10D13CB170480A306E
:100A3000008890436E490A31088007E06C480A300C
:100A4000008891B208436A490A31088030BDFF210D
:100A5000674AD21D127802F07F0140EA0102644B1E
:100A6000DB1D1A70704730B502460C460925FFF7AA
:100A7000FCFD0546092D10D144B15D48801D00885C
:100A800091B208435A49891D088006E05848801DE4
:100A9000008890435649891D088030BD30B5024614
:100AA0000C460925FFF7E1FD0546092D10D144B19B
:100AB0004F480A30008891B208434D490A310880F6
:100AC00006E04B480A300088904349490A310880C3
:100AD00030BD10B502460924FFF7C7FD0446092CB6
:100AE00002D14348401D027010BDF0B504460D46CA
:100AF000FF260927FFF7B9FD0746092F0BD13C4810
:100B0000001D007800F00F0645EA06001043204360
:100B10003749091D0870F0BD3549091D097821F0D4
:100B20001001334A121D11701146097801431170EA
:100B300070472F49091D097821F00C012C4A121D1C
:100B400011701146097801431170704700B50922F0
:100B50002748001D007840F002002549091D087053
:100B6000FFF783FD0246104600BD2148001D0068C6
:100B7000C0F3471070471E48801D008870471C480E
:100B80000A30008870471A48801D0088704718484E
:100B90000A300088704700201549491D0978AA29A4
:100BA00001D0012000E0002070471148001D0078AE
:100BB00000F00C00704729B10D4A126802430C4B3B
:100BC0001A6004E00A4A12688243094B1A607047AF
:100BD00001460020064A121F12680A400AB101208D
:100BE00000E0002070470249091F086070470000BC
:100BF000103C02403B2A19087F6E5D4C10B504463C
:100C00009848844208D10121084600F0A6FB002143
:100C1000012000F0A2FB76E09348844208D1012134
:100C2000022000F09AFB0021022000F096FB6AE00F
:100C30008E48844208D10121042000F08EFB00215F
:100C4000042000F08AFB5EE08948844208D101213B
:100C5000082000F082FB0021082000F07EFB52E01B
:100C60008448844208D10121102000F076FB002145
:100C7000102000F072FB46E07F48844208D1012139
:100C8000202000F06AFB0021202000F066FB3AE003
:100C90007A48844208D10121402000F05EFB002107
:100CA000402000F05AFB2EE07548844208D1012113
:100CB000802000F052FB0021802000F04EFB22E05B
:100CC0007048844208D10121801500F046FB0021C4
:100CD000A01500F042FB16E06B48844208D10121C8
:100CE000401500F03AFB0021601500F036FB0AE0E9
:100CF0006648844207D10121001500F02EFB002137
:100D0000201500F02AFB10BDF0B50A460021002393
:100D1000002400BF3DE0012505FA01F3156805EA4E
:100D200003049C4234D105684F000326BE40B543FE
:100D3000056015794E00B5400668354305601579A4
:100D4000012D02D01579022D16D185684F0003269A
:100D5000BE40B543856055794E00B5408668354341
:100D60008560456801268E40B543456045689679A3
:100D70008E40B6B235434560C5684F000326BE407D
:100D8000B543C560D5794E00B540C6683543C560EA
:100D9000491C1029BFD3F0BD4FF6FF71016000213F
:100DA000017141718171C171704708B54FF4803292
:100DB0000092009A0A430092009AC261C161009AAF
:100DC000C261C2690092C269009208BD0246002059
:100DD00013690B400BB1012000E000207047014671
:100DE000086980B270470246002053690B400BB17E
:100DF000012000E0002070470146486980B270473A
:100E000001837047418370470AB1018300E0418349
:100E100070474161704742694A4042617047F0B58E
:100E2000002300244D07ED0E02FA05F3CE1000F169
:100E3000200555F826504E07F70E0F26BE40B54345
:100E4000CF1000F1200646F82750CE1000F1200503
:100E500055F8265045EA0304CE1000F1200545F868
:100E60002640F0BD0000024000040240000802409D
:100E7000000C024000100240001402400018024022
:100E8000001C0240002002400024024000280240D2
:100E90000E49086070470D49486070470B498860EB
:100EA00070474AF6AA200949086070474CF6CC40C2
:100EB00006490860704701460020044AD2680A408B
:100EC0000AB1012000E0002070470000003000401F
:100ED000F948006840F00100F74908600020F64931
:100EE00008310860F4480068F4490840F249086095
:100EF000F348091D0860F348EF4984310860F04861
:100F00001038091D0860EC48006820F48020EA4988
:100F100008600020E8490C310860E7498C3108601E
:100F200070470021E44A921C117011460870704706
:100F300010B501460022002300204A11012A02D1E7
:100F4000DD4C236808E0022A03D1DB4C70342368AF
:100F500002E0D94C7434236801F01F02012494404C
:100F60001C400CB1012000E0002010BD38B500206D
:100F700000900024002500BF3120FFF7D9FF05466F
:100F80000098401C00900098B0F5A04F01D0002DB3
:100F9000F2D03120FFF7CCFF08B1012400E000249B
:100FA000204638BD01460020C34A106820F0F800F2
:100FB00040EAC10010607047C349086070470021D3
:100FC000BD4A703211701170012802D004280AD174
:100FD00004E00121B84A7032117005E00521B64ADB
:100FE0007032117000E000BF00BF7047B749086061
:100FF000704770B5049C41EA82150126C6EB530682
:1010000045EA0645054345EA0465AB4E361D3560A5
:1010100070BDAD4908667047820142EA0172A64B75
:1010200084331A607047A8498866704710B58301F9
:1010300043EA016343EA02739F4C8834236010BD86
:10104000A14908677047A049C8647047024600205C
:10105000994B0833186820F0EC6042EA010318430A
:10106000954B08331860704702460020924B0833B6
:10107000186820F0784042EA010318438E4B083389
:1010800018607047014600208B4A0832106820F033
:10109000030008431060704787480830006800F07C
:1010A0000C00704701460020834A0832106820F087
:1010B000F000084310607047014600207E4A083265
:1010C000106820F4E050084310607047014600208B
:1010D000794A0832106820F4604040EAC10010608C
:1010E0007047F0B5002100220024022500260223CB
:1010F000714F08373F6807F00C0121B1042905D072
:10110000082937D105E0724F076036E0714F07605C
:1011100033E0694F3F1D3F68C7F38056664F3F1D60
:101120003F6807F03F036EB16A4FB7FBF3F7DFF894
:1011300088C10CF1040CDCF800C0CCF3881C07FB60
:101140000CF40CE0624FB7FBF3F7DFF86CC10CF165
:10115000040CDCF800C0CCF3881C07FB0CF4564FE1
:101160003F1D3F68C7F301477F1C7D00B4FBF5F7C7
:10117000076002E0564F076000BF00BF4E4F0837C0
:101180003F6807F0F0010909534F7A5C0768D740C0
:101190004760494F08373F6807F4E051890A4E4FCE
:1011A0007A5C4768D7408760434F08373F6807F449
:1011B0006041490B484F7A5C4768D740C760F0BD33
:1011C000002100F44072B2F5407F0AD13A4A083259
:1011D000116821F4F811414A02401143364A08329D
:1011E0001160354A70321268C0F30B031A43324B58
:1011F00070331A6070473549443908607047334985
:101200004039086070473649086070470146002041
:10121000294A8C32106820F440100843106070474F
:1012200001460020244A8C32106820F44000084314
:1012300010607047014600201F4A8C32106820F071
:101240001F004A1E10431C4A8C3210607047014632
:101250000020194A8C32106820F4F8504A1E40EAE7
:101260000220154A8C321060704701460020124A55
:101270008C32106820F440300843106070471949E0
:101280000860704739B10C4A3032126802430A4B89
:1012900030331A6006E0084A303212688243064B47
:1012A00030331A607047F9B1034A3432126802438E
:1012B000014B34331A601CE000380240FFFFF6EAAD
:1012C000103000240030002000004742800E4742CA
:1012D0000024F40040787D0114000020FFFCFF0F83
:1012E0005C014742E01147428F4A126882438E4BAD
:1012F0001A60704739B18C4A121D126802438A4B3A
:101300001B1D1A6006E0884A121D12688243864B34
:101310001B1D1A60704739B1834A0C3212680243B0
:10132000814B0C331A6006E07F4A0C32126882430C
:101330007D4B0C331A60704739B17B4A103212680A
:101340000243794B10331A6006E0774A1032126874
:101350008243754B10331A60704739B1724A243A90
:1013600012680243704B243B1A6006E06E4A243A2E
:10137000126882436C4B243B1A60704739B16A4A49
:10138000203A12680243684B203B1A6006E0664A26
:10139000203A12688243644B203B1A60704739B18F
:1013A000614A1C3A126802435F4B1C3B1A6006E01C
:1013B0005D4A1C3A126882435B4B1C3B1A607047C3
:1013C00039B1594A143A12680243574B143B1A6018
:1013D00006E0554A143A12688243534B143B1A6094
:1013E000704739B1504A103A126802434E4B103BD5
:1013F0001A6006E04C4A103A126882434A4B103B8E
:101400001A60704739B1484A1C3212680243464B91
:101410001C331A6006E0444A1C3212688243424B75
:101420001C331A60704739B13F4A203212680243B8
:101430003D4B20331A6006E03B4A2032126882435B
:10144000394B20331A60704739B1374A2432126859
:101450000243354B24331A6006E0334A24321268C3
:101460008243314B24331A60704739B12E4A2C32F3
:10147000126802432C4B2C331A6006E02A4A2C32A5
:1014800012688243284B2C331A60704739B1264AC0
:10149000303212680243244B30331A6006E0224A8D
:1014A000303212688243204B30331A607047012873
:1014B00008D11D493C31096841F008011A4A3C3203
:1014C000116007E018493C31096821F00801164A0B
:1014D0003C321160704739B1134A273A12780243FF
:1014E000114B273B1A7006E00F4A273A12788243C5
:1014F0000D4B273B1A7070470B484030006840F096
:101500008070094940310860704701460020064A52
:10151000283A12680A400AB1012000E00020704712
:1015200001492639087070473438024010B5044626
:10153000FB48844208D101218014FFF752FF0021AB
:10154000A014FFF74EFF3CE0F648844208D1012189
:101550000014FFF735FF00212014FFF731FF30E0C2
:10156000F148844208D10121C013FFF729FF00216F
:10157000E013FFF725FF24E0EC48844208D1012165
:101580004014FFF72EFF00216014FFF72AFF18E038
:10159000E748844209D101210805FFF722FF002115
:1015A0004FF48010FFF71DFF0BE0E248844208D1A2
:1015B00001214805FFF715FF00214FF40010FFF748
:1015C00010FF10BD10B50022028802F441520B88B2
:1015D0004C8823438C882343CC8823430C892343A2
:1015E0004C8923438C892343CC8923431A430280AB
:1015F000838B4FF2FF74234083830B8A038210BDD9
:101600002DE9F04F0025022300244FF001090022AC
:101610000026002794469046B0F81CA04FF2400BDD
:101620000AEA0B0AA0F81CA04FF0020AA0F820A0BA
:10163000858BD1F808A0BAF1020F01D100BF82E07A
:10164000B1F804A0BAF1000F02D14FF0010901E096
:101650004FF00209DFF8E0A2DAF800A00AF4000A6D
:10166000BAF1000F09D0DFF8D0A2DAF800A02AF40E
:10167000000ADFF8C4B2CBF800A0DFF8BCA20AF180
:101680007C0ADAF800A0CAF3881CDFF8ACA20AF1E1
:101690007C0ADAF800A0CAF30278DFF89CA2AAF16B
:1016A000040ADAF800A00AF03F07DFF88CA2AAF1DA
:1016B000040ADAF800A00AF4800ABAF5800F08D10B
:1016C000DFF878A2BAFBF7FA0AFB0CFABAFBF8F6D5
:1016D00007E0DFF86CA2BAFBF7FA0AFB0CFABAFBD8
:1016E000F8F6B1F806A0BAF5007F0ED14FEA162A37
:1016F0000AEB8A0A4FEA4A0AD1F808B0BAFBFBFAA9
:101700000AF1050A1FFA8AF20FE04FEA491AB6FBFE
:10171000FAFA0AEB8A0A4FEA4A0AD1F808B0BAFB89
:10172000FBFA0AF1050A1FFA8AF24FF00A0AB2FB25
:10173000FAF202F00104A2EB040ACAF34F034FF6D7
:10174000FF7A0AEA0424022B01DBFF2B01DD0223CE
:101750000024B1F806A04AEA040A4AEA030AA0F8FB
:1017600020A0B1F804A0B1F80CB04AEA0B0AB1F815
:1017700002B04AEA0B0AB1F800B04AEA0B0A4AF48E
:10178000006A4AEA05058583BDE8F08F00210180E3
:1017900041808180C180018141818181C181072196
:1017A000018270470021018041808180C180022137
:1017B000816000218181704721B1028842F040029E
:1017C000028004E002884FF6BF731A40028070471F
:1017D00021B1828B42F48062828304E0828B4FF6D7
:1017E000FF331A408283704702884FF2FF731A401A
:1017F000028002880A4302807047B1F5804F04D10D
:10180000028842F48042028004E002884BF6FF73B3
:101810001A40028070474FF6FF62914204D002885E
:1018200042F48072028004E002884FF6FF631A409F
:101830000280704721B1828842F00402828004E075
:1018400082884FF6FB731A408280704721B18288EC
:1018500042F01002828004E082884FF6EF731A4053
:101860008280704730B500220023848B4FF2400500
:101870002C40848302240484828B0C88B4F5007F7E
:1018800001D00C8814B94FF4807308E00C88B4F5CB
:10189000407F03D00C88B4F5807F00D100238C8872
:1018A0008D892C434D882C431C4344F4006422430F
:1018B000828330BD0146888970478181704721B19C
:1018C000028842F40052028004E002884DF6FF7361
:1018D0001A4002807047018841F4805101807047AE
:1018E00002460020012901D0108B00E0908A704749
:1018F0000146088A70471AB183880B43838002E04F
:1019000083888B438380704730B5002400230C11FB
:101910000125A540ABB2AAB185881D43858014E09E
:101920000030014000380040003C004000340140DD
:1019300000500140005401400838024040787D01C9
:101940000024F40085889D43858030BD0246002038
:1019500013890B400BB1012000E000207047CA43FF
:1019600002817047F0B502460020002400230025C4
:1019700001F00F070126BE40B4B20B1101269E40B4
:10198000B3B2968806EA03051689264016B10DB152
:10199000012000E00020F0BD10B5002201F00F048E
:1019A0000123A3409AB2D343038110BD10B504466E
:1019B000FE48844208D101210846FFF712FD0021AC
:1019C0000120FFF70EFD9DE0B4F1804F08D1012109
:1019D0000846FFF7F5FC00210120FFF7F1FC91E03C
:1019E000F348844208D101210220FFF7E9FC0021DD
:1019F0000220FFF7E5FC85E0EE48844208D1012192
:101A00000420FFF7DDFC00210420FFF7D9FC79E07A
:101A1000E948844208D101210820FFF7D1FC0021C8
:101A20000820FFF7CDFC6DE0E448844208D1012195
:101A30001020FFF7C5FC00211020FFF7C1FC61E07A
:101A4000DF48844208D101212020FFF7B9FC0021A2
:101A50002020FFF7B5FC55E0DA48844208D1012187
:101A60000220FFF7BEFC00210220FFF7BAFC49E08C
:101A7000D548844209D101210804FFF7B2FC0021B6
:101A80004FF48030FFF7ADFC3CE0D048844209D1F0
:101A900001214804FFF7A5FC00214FF40030FFF7B7
:101AA000A0FC2FE0CA48844209D101218804FFF735
:101AB00098FC00214FF48020FFF793FC22E0C548FA
:101AC000844208D101214020FFF77AFC0021402008
:101AD000FFF776FC16E0C048844208D1012180203F
:101AE000FFF76EFC00218020FFF76AFC0AE0BB488C
:101AF000844207D101218015FFF762FC0021A01567
:101B0000FFF75EFC10BD00220288A84B98420ED061
:101B1000AC4B98420BD0B0F1804F08D0A44B984208
:101B200005D0A44B984202D0A34B984204D14FF663
:101B30008F731A404B881A43A04B984207D0A04B92
:101B4000984204D04FF6FF431A400B891A43028093
:101B50004B68C3620B880385944B984202D0994B23
:101B6000984201D18B7A03860123838270474FF01C
:101B7000FF31416000210180018141808172704705
:101B80000185828270470A46002101884FF68F73D3
:101B9000194011430180704741627047C16270472C
:101BA0000146486A70470146088D704721B1028896
:101BB00042F00202028004E002884FF6FD731A40F0
:101BC0000280704721B1028842F00402028004E0E2
:101BD00002884FF6FB731A400280704721B10288D9
:101BE00042F08002028004E002884FF67F731A40C0
:101BF0000280704702884FF6F7731A40028002880D
:101C00000A430280704702884FF6FF431A40028061
:101C100002880A430280704721B1028842F0010223
:101C2000028004E002884FF6FE731A40028070477B
:101C300070B5002400220023058C4FF6FE76354057
:101C40000584028C8388048B4FF68F752C40B51E5B
:101C50002C400D882C43751E2A408D892A434D88BF
:101C60002A43524DA84202D0564DA84213D14FF6F6
:101C7000F7752A40CD892A434FF6FB752A408D8897
:101C80002A434FF6FF652B404FF6FF552B400D8A38
:101C90002B434D8A2B43838004838D6845630284E4
:101CA00070BD70B5002400220023058C4FF6EF763E
:101CB00035400584028C8388048B48F6FF752C40E0
:101CC0004FF6FF452C400D884FF6FF7606EA0525B6
:101CD0002C434FF6DF752A408D8906EA05152A4305
:101CE0004D8806EA05152A43304DA84202D0354DED
:101CF000A8421DD14FF67F752A40CD894FF6FF7659
:101D000006EA05152A434FF6BF752A408D8806EA74
:101D100005152A434FF6FF352B404FF2FF752B4038
:101D20000D8A06EA85052B434D8A06EA85052B4375
:101D3000838004838D688563028470BD70B5002440
:101D400000220023058C4FF6FF6635400584028C87
:101D50008388848B4FF68F752C404FF6FC752C4092
:101D60000D882C434FF6FF552A408D894FF6FF769C
:101D700006EA05252A434D8806EA05252A430B4D28
:101D8000A84202D00F4DA84238D14FF2FF752A4029
:101D9000CD894FF6FF7606EA05252A434FF6FF3533
:101DA0002A408D8806EA05252A4319E000000140F3
:101DB0000004004000080040000C004000100040FB
:101DC0000014004000040140004001400044014074
:101DD0000048014000180040001C00400020004066
:101DE0004EF6FF752B404DF6FF752B400D8A06EA27
:101DF00005152B434D8A06EA05152B438380848302
:101E00008D68C563028470BD70B500220023002474
:101E1000058C4EF6FF7635400584038C8488828BD2
:101E200048F6FF752A404FF6FF452A400D884FF6C9
:101E3000FF7606EA05252A434DF6FF752B408D896E
:101E400006EA05352B434D8806EA05352B43FE4D42
:101E5000A84202D0FD4DA84208D14BF6FF752C4098
:101E60000D8A4FF6FF7606EA85152C43848082831F
:101E70008D680564038470BD0021018041808180EC
:101E800081608181C18101824182704770B50346C2
:101E9000002000241846183001258D40ACB21D8C5E
:101EA000A5431D8409B108290AD100EB610005682A
:101EB0004FF68F76354005600568154305600FE0E5
:101EC0000D1FC5F34E052844056848F6FF763540DA
:101ED000056005684FF6FF7606EA02263543056081
:101EE00070BD4163704781637047C163704701648F
:101EF00070470A460021018B4FF68F73194011433A
:101F0000018370470A460021018B48F6FF73194090
:101F10004FF6FF7303EA02231943018370470A4611
:101F20000021818B4FF68F731940114381837047D5
:101F30000A460021818B48F6FF7319404FF6FF7364
:101F400003EA02231943818370470A460021018B6B
:101F50004FF6F77319401143018370470A46002179
:101F6000018B4FF2FF7319404FF6FF7303EA022310
:101F70001943018370470A460021818B4FF6F7739E
:101F800019401143818370470A460021818B4FF22B
:101F9000FF7319404FF6FF7303EA0223194381834D
:101FA00070470A460021018B4FF6FB73194011431D
:101FB000018370470A460021018B4FF6FF33194019
:101FC0004FF6FF7303EA02231943018370470A4661
:101FD0000021818B4FF6FB731940114381837047B9
:101FE0000A460021818B4FF6FF3319404FF6FF73ED
:101FF00003EA02231943818370470A460021018BBB
:102000004FF67F7319401143018370470A46002140
:10201000018BC1F30E014FF6FF7303EA022319434C
:10202000018370470A460021818B4FF67F73194068
:102030001143818370470A460021818BC1F30E0151
:102040004FF6FF7303EA02231943818370470A4660
:102050000021018C4FF6FD73194011430184704734
:102060000A460021018C4FF6F77319401143018491
:1020700070470A460021018C4FF6DF7319404FF676
:10208000FF7303EA02131943018470470A460021D3
:10209000018C4FF67F7319404FF6FF7303EA02136A
:1020A0001943018470470A460021018C4FF6FF5303
:1020B00019404FF6FF7303EA022319430184704766
:1020C0000A460021018C4FF2FF7319404FF6FF734F
:1020D00003EA02231943018470470A460021018C58
:1020E0004DF6FF7319404FF6FF7303EA02331943AD
:1020F0000184704730B5002301248C40A3B2048CC6
:102100009C430484048C02FA01F5ADB22C43048490
:1021100030BD30B5002304248C40A3B2048C9C4312
:102120000484048C02FA01F5ADB22C43048430BD62
:10213000828B4FF2FF331A408283828B4FF6FF73FC
:1021400003EA01231A4382837047F0B50C46154613
:10215000002100220026078C4EF6FF7C07EA0C07C0
:102160000784818B028C4FF6FF7707EA043640F62E
:10217000FF4739404FF6FF7707EA052739434FF607
:10218000FF7707EA0337394345F6FF773A4046F4CD
:1021900080573A4381830284F0BD828B4FF6F373FC
:1021A0001A408283828B0A4382837047F0B50C46C3
:1021B0001546002100220026078C4FF6FF6C07EA27
:1021C0000C070784818B028C4FF6FF7707EA042601
:1021D0004FF60C7739404FF6FF7707EA03172F4386
:1021E00039434FF2FF573A4046F480773A438183B0
:1021F0000284F0BD028B4FF2FF331A400283028B40
:102200004FF6FF7303EA01231A4302837047F0B5C8
:102210000C461546002100220026078C4FF6EF7C65
:1022200007EA0C070784018B028C4FF6FF7707EA59
:10223000041640F6FF4739404FF6FF7707EA0337A9
:1022400039434FF6FF7703E00000014000040140EE
:1022500007EA052739434FF65F773A4046F0100703
:102260003A4301830284F0BD028B4FF6F3731A40A8
:102270000283028B0A4302837047F0B50C46154671
:1022800000210022068C4FF6FE773E400684018B2B
:10229000028C4FF60C7631407E1C06EA03162E4364
:1022A00031434FF6F576324044F001063243018364
:1022B0000284F0BD70B505460C46208850B92389CC
:1022C000A28861882846FFF7D8FFE1882846FFF7F3
:1022D000CBFF25E0208804280AD12389A2886188C1
:1022E0002846FFF794FFE1882846FFF783FF17E0B1
:1022F000208808280AD12389A28861882846FFF708
:1023000055FFE1882846FFF748FF09E02389A288A6
:1023100061882846FFF719FFE1882846FFF708FF84
:1023200070BD002101804180012181800021C18098
:10233000018170472DE9F04105460C460026012732
:10234000608808B9022600E00026A088012801D193
:10235000022700E001272088A0B92389A28861888C
:102360002846FFF78AFFE1882846FFF77DFF23898B
:102370003A4631462846FFF74AFFE1882846FFF7EC
:1023800039FF13E02389A28861882846FFF73FFFC1
:10239000E1882846FFF72EFF23893A463146284632
:1023A000FFF76BFFE1882846FFF75EFFBDE8F0818D
:1023B0000146486B70470146886B70470146C86B01
:1023C00070470146086C70470A884B881A438B880F
:1023D0001A43CB881A430B891A434B891A438B89BA
:1023E0001A43A0F844207047002101804180818079
:1023F000C180018141818181704731B1B0F84420B1
:1024000042F40042A0F8442005E0B0F84420C2F3B2
:102410000E02A0F84420704721B1828842F00402E5
:10242000828004E082884FF6FB731A4082807047F6
:1024300021B1828842F00102828004E082884FF656
:10244000FE731A40828070471AB183890B438381DF
:1024500002E083898B438381704781827047024603
:102460000020138A0B400BB1012000E000207047D0
:10247000CA430282704730B5024600200023002480
:10248000158A05EA0103958905EA010413B10CB127
:10249000012000E0002030BDCA430282704741EABB
:1024A0000203A0F8483070471AB183890B43838137
:1024B00002E083898B438381704721B1828842F097
:1024C0000802828004E082884FF6F7731A40828007
:1024D000704701894FF6F8721140018170470A4632
:1024E000002101894FF68F73194011430181704714
:1024F00030B504460D4629462046FFF7F0FF2089F7
:1025000040F00700208130BD2DE9F04104460D4622
:1025100016461F46602D06D13B4601223146204615
:10252000FFF775FE05E03B46012231462046FFF7E6
:10253000A4FE29462046FFF7D2FF208940F007007D
:102540002081BDE8F08130B50C4600210189C9B277
:102550004FF6FF7505EA03251543254329430181FD
:1025600030BD2DE9F04105460E4617469846002439
:1025700043463A4631462846FFF7E5FF2C894FF699
:10258000F870044044F007044FF68F70044044F0A4
:1025900070042C81BDE8F081F0B504460D46164666
:1025A0001F463B46324629462046FFF7CCFF20898E
:1025B00040F480402081F0BD82884FF68F731A402E
:1025C000828082880A438280704702894FF6F873BE
:1025D0001A40028102890A430281704702894FF63C
:1025E0007F731A40028102890A4302817047F0B565
:1025F0000C4615461E460021002200230189028B4D
:10260000038C4FF6F877394021434FF6FC473A40A8
:1026100040F201173A434FF6DD773B404FF6FF7724
:1026200007EA06172F433B43018102830384F0BD71
:1026300021B1828842F08002828004E082884FF6D5
:102640007F731A4082807047A0F8501070470000D6
:1026500010B50446FA48844208D101211020FEF743
:10266000C0FE00211020FEF7BCFE57E0F548844272
:1026700009D101214804FEF7A3FE00214FF40030E8
:10268000FEF79EFE4AE0F048844209D10121880409
:10269000FEF796FE00214FF48020FEF791FE3DE00C
:1026A000EA48844209D10121C804FEF789FE0021CD
:1026B0004FF40020FEF784FE30E0E548844209D163
:1026C00001210805FEF77CFE00214FF48010FEF783
:1026D00077FE23E0DF48844208D101212020FEF765
:1026E00080FE00212020FEF77CFE17E0DA488442BD
:1026F00009D101218807FEF763FE00214FF08040D9
:10270000FEF75EFE0AE0D548844207D1012140056C
:10271000FEF756FE00216005FEF752FE10BD2DE9C2
:10272000FF4705460E460024A14600BFA046B089DB
:1027300000B100BF2C8A24F44054F08804432C825A
:10274000AC8941F20C608443B088318908437189B7
:1027500008430443AC81AC8A24F44074B089044338
:10276000AC826846FEF7BDFCB548854202D0B94848
:10277000854202D1DDF80C9001E0DDF80890A889CF
:1027800000F4004040B109EBC90000EB09103168CA
:102790004900B0FBF1F707E009EBC90000EB0910B5
:1027A00031688900B0FBF1F76420B7FBF0F0040159
:1027B0002009642101FB1078A88900F4004040B191
:1027C000322000EBC800B0FBF1F000F0070004433A
:1027D00008E0322000EB08106421B0FBF1F000F0BB
:1027E0000F0004432C81BDE8FF874FF416510160B0
:1027F00000218180C18001810C21418100218181E2
:10280000704710B502460020108A20F470600B88D3
:102810004C8823438C882343CC882343184310825D
:1028200010BD0021018041808180C180704721B1AD
:10283000828942F40052828104E082894DF6FF735E
:102840001A4082817047028B02F47F420283028B1E
:102850000A430283704721B1828942F40042828197
:1028600003E08289C2F30E028281704721B1828A1D
:1028700042F40062828204E0828A4FF2FF731A40BF
:1028800082827047C1F308028280704701468888BF
:10289000C0F308007047028A4FF6F0731A400282B4
:1028A000028A0A430282704721B1828942F0020201
:1028B000828104E082894FF6FD731A40828170475D
:1028C00082894FF2FF731A40828182890A43828192
:1028D0007047028A4FF6DF731A400282028A0A4367
:1028E0000282704721B1028A42F48042028204E0EF
:1028F000028A4BF6FF731A4002827047818941F0C9
:1029000001018181704721B1828A42F008028282EE
:1029100004E0828A4FF6F7731A4082827047028B76
:10292000D2B20283028B42EA01220283704721B1B4
:10293000828A42F02002828204E0828A4FF6DF73AC
:102940001A408282704721B1828A42F0100282824C
:1029500004E0828A4FF6EF731A4082827047828ABF
:102960004FF6FB731A408282828A0A438282704742
:1029700021B1828A42F00202828204E0828A4FF60A
:10298000FD731A40828270471AB1838A0B43838297
:1029900002E0838A8B4383827047F0B503460024AC
:1029A00000260025002040F66A17B94200D100BF7A
:1029B0001846C1F3421401F01F06012707FA06F575
:1029C000012C01D10C3004E0022C01D1103000E0C8
:1029D00014301AB107682F43076002E00768AF435D
:1029E0000760F0BD02460020B1F5007F00D100BFB6
:1029F00013880B400BB1012000E00020704701F468
:102A00000072B2F5007F00D100BFCA430280704758
:102A100070B50246002400230025002040F66A1607
:102A2000B14200D100BFC1F3421501F01F030126DE
:102A300006FA03F3012D13D19689334017E0000005
:102A4000001001400044004000480040004C00409D
:102A5000005000400014014000780040007C00401D
:102A6000022D02D1168A334001E0968A33400C12BF
:102A7000012606FA04F41688344013B10CB1012083
:102A800000E0002070BD10B50022002340F66A145B
:102A9000A14200D100BF0A1201249440A3B2DC433A
:102AA000048010BD016821F0010101600021016076
:102AB00041608160C160016121214161DB4988423F
:102AC00004D13D21D94A103A91608CE0D7491831A0
:102AD000884205D14FF47461D44A103A916082E083
:102AE000D2493031884205D14FF47411CF4A103A9F
:102AF000916078E0CD494831884205D14FF074614A
:102B0000CA4A103A91606EE0C8496031884204D1E7
:102B1000C749C64A103AD16065E0C4497831884255
:102B200004D1C449C14A103AD1605CE0BF49903138
:102B3000884204D1C049BD4A103AD16053E0BB4934
:102B4000A831884205D14FF03D51B84A103AD160C2
:102B500049E0BA49884204D13D21B84A083A116097
:102B600041E0B6491831884205D14FF47461B34A47
:102B7000083A116037E0B1493031884205D14FF44D
:102B80007411AE4A083A11602DE0AC4948318842D0
:102B900005D14FF07461A94A083A116023E0A749B2
:102BA0006031884204D1A249A44A121F11601AE080
:102BB000A2497831884204D19E49A04A121F11606F
:102BC00011E09E499031884204D19B499B4A121FD3
:102BD000116008E09949A831884204D14FF03D5175
:102BE000964A121F1160704710B500220268944B7C
:102BF0001A40CC680B6823434C6923438C692343F8
:102C0000CC6923430C6A23434C6A23438C6A2343D5
:102C10004C6B23438C6B23431A430260426922F0BE
:102C20000702D1E90B3423431A4342610B69436025
:102C30004B6883608B68C36010BD002101604160F8
:102C40008160C160016141618161C1610162416274
:102C50008162C162016341638163704721B102688F
:102C600042F00102026003E0026822F00102026009
:102C7000704721B1026842F40042026003E002683A
:102C800022F400420260704721B1026842F0200243
:102C9000026003E0026822F0200202607047416097
:102CA00070470146486880B2704722B1036843F418
:102CB0000023036003E0036823F400230360016141
:102CC000704721B1026842F48022026003E002688A
:102CD00022F48022026070470AB1016100E0C16005
:102CE0007047014600200A6802F400220AB1012060
:102CF00000E000207047014600200A6802F001024F
:102D00000AB1012000E000207047014600204A6916
:102D100002F03800704730B503460A460020002410
:102D2000464DAB4202D24149103901E043491039C6
:102D300002F000550DB14C6800E00C68414D2C408C
:102D400004EA02050DB1012000E0002030BD02467A
:102D50003A4B9A4202D23548103801E037481038D1
:102D600001F000531BB1374B0B40C36002E0354B01
:102D70000B408360704710B501F080034BB122B166
:102D8000436943F08003436103E0436923F0800318
:102D9000436180290BD02AB1036801F01E0423434C
:102DA000036004E0036801F01E04A343036010BD48
:102DB00070B50246002000240025204EB24202D207
:102DC0001A4B103B01E01D4B103B1F4E0E4036B11D
:102DD0001E2606EAD124166806EA040502E05669B2
:102DE00006F0800501F000560EB15C6800E01C683A
:102DF000144E344004EA010616B10DB1012000E082
:102E0000002070BD02460D4B9A4202D2074810388E
:102E100001E00A48103801F000531BB1094B0B4088
:102E2000C36002E0074B0B408360704710600240B4
:102E30003D000020400F002000003D2010640240B3
:102E40003F801CF07D0F7D0F3C0F3C0F00F108010F
:102E500041604FF0FF31816000F10801C160016104
:102E600000210160704700210161704742684A609B
:102E700093688B60936859609160086103685B1C7C
:102E80000360704710B502460B685C1C0CB91069F2
:102E900007E002F1080000E04068446824689C42B2
:102EA000FAD944684C604C68A160886041600A614E
:102EB0001468641C146010BD01460A69D1E9013030
:102EC0009860D1E9010358605068884201D1886850
:102ED0005060002008611068401E10601068704744
:102EE00010B5002407E004EB8401FD4A02EB8100E9
:102EF000FFF7ACFF641C032CF5D3FA48FFF7A6FFDD
:102F0000F948FFF7A3FFF948FFF7A0FFF848FFF7DC
:102F10009DFFF848FFF79AFFF248F7490860F2482A
:102F2000F649086010BD2DE9F04704460F461646E5
:102F30009946DDF82080002507E0795D04F1340032
:102F40004155785D00B902E06D1C102DF5D300BF2E
:102F5000002143200155032E00D30226E662201DE6
:102F6000FFF781FF04F11800FFF77DFF2461C6F130
:102F70000300A06164620020E06484F85000BDE8B2
:102F8000F0872DE9F04105460F461FB9A80001F072
:102F900092FC00E03846064656B1542001F08BFC06
:102FA00004460CB1266304E0304601F018FD00E051
:102FB000002424B1A900A522206B09F041F9204684
:102FC000BDE8F0812DE9FF4F81B0804616469A4654
:102FD000DDE90E5BB8F1000F0AD100BF502080F38D
:102FE0001188BFF34F8FBFF36F8F00BF00BFFEE7A5
:102FF000032D01D2012000E0002050B900BF502075
:1030000080F31188BFF34F8FBFF36F8F00BF00BFF6
:10301000FEE730461099FFF7B4FF0446002C64D059
:10302000701E216B01EB800929F0070909F00700E8
:1030300008B9012000E0002050B900BF502080F303
:103040001188BFF34F8FBFF36F8F00BF00BFFEE744
:1030500000962A462046119B0299FFF764FF5246CC
:103060004146484601F064FA2060BBF1000F01D0F0
:10307000CBF8004001F019FBA1480068401CA049B2
:103080000860A048006840B99E480460084600688F
:1030900001280CD1FFF724FF09E09B48006830B9F4
:1030A00098480068C06AA84201D8964804609748CA
:1030B0000068401C9549086008460068606494F800
:1030C0002C10012088409249096808439049086003
:1030D000E16A01EB8101824A02EB8100211DFFF7C9
:1030E000C5FE012701F008FB01E04FF0FF37012F7B
:1030F0000ED18548006858B182480068C06AA8426D
:1031000006D2380783490860BFF34F8FBFF36F8F34
:10311000384605B0BDE8F08F77490968096809B9F4
:10312000012100E0002121B14FF0FF317A4A116006
:1031300006E071490968C968C868774A4168116042
:10314000704770B5054601F0B0FA15B96D480068D2
:1031500000E028460446201DFFF7AEFE78B9E06A7D
:1031600000EB80005E4951F8200040B994F82C1023
:103170000120884066490968814365480160A06A6A
:1031800018B104F11800FFF797FE211D5848FFF70A
:103190006DFE62480068401C604908605B4800683A
:1031A000401C5A49086001F0A7FA5748006820B34C
:1031B0005448006884421AD15948006808B901206F
:1031C00000E0002050B900BF502080F31188BFF309
:1031D0004F8FBFF36F8F00BF00BFFEE74FF08050EF
:1031E0004C490860BFF34F8FBFF36F8F05E001F0CC
:1031F0005CFAFFF791FF01F07FFA70BD2DE9F04115
:103200004FF0000846480068002868D1454800682B
:10321000401C444908600846066816BB36480068EA
:10322000006808B9012000E0002050B900BF50201C
:1032300080F31188BFF34F8FBFF36F8F00BF00BFC4
:10324000FEE72D4807682D4800682B4908602B4889
:10325000076035480068401C33490860FFF75CFF91
:1032600000BF2D480068864264D300BF2248006832
:10327000006808B9012000E0002020B14FF0FF30C5
:103280002549086055E01C480068C068C468656846
:10329000AE4202D2204805604BE0201DFFF70CFE35
:1032A000A06A18B104F11800FFF706FE94F82C107C
:1032B0000120884016490968084315490860E16AF9
:1032C00001EB8101064A02EB8100211DFFF7CEFDD3
:1032D0000C49E06A0968C96A8842C7D326E036E02B
:1032E000100200204C020020600200207402002026
:1032F000880200209C020020280000202C000020D2
:103300003400002024000020400000205000002055
:103310003C00002004ED00E05400002030000020BC
:1033200058000020380000204C0000204FF0010819
:103330009CE700BFFE480068C06A00EB8000FD49C2
:1033400051F82000012807D94FF0010804E0FA489D
:103350000068401CF8490860F848006808B14FF060
:1033600001084046BDE8F08170B50025F4480068CA
:1033700050B900BF502080F31188BFF34F8FBFF3C7
:103380006F8F00BF00BFFEE701F08FF9EC480068C7
:10339000401EEB49086008460068002850D1E94803
:1033A000006800284CD024E0E748C068C46804F1F5
:1033B0001800FFF781FD201DFFF77EFD94F82C100B
:1033C00001208840E14909680843E0490860E16A52
:1033D00001EB8101D74A02EB8100211DFFF746FD79
:1033E000D349E06A0968C96A884202D30120D349F7
:1033F0000860D548006808B9012000E000200028D6
:10340000D2D0CD48006878B10AE0FFF7F7FE10B1DE
:103410000120CA490860C8480068401EC6490860C3
:10342000C54800680028F0D1C4480068012807D1C9
:1034300001250007C6490860BFF34F8FBFF36F8FA8
:1034400001F05AF9284670BD10B50446B848006826
:103450004460C0480068844207D2B5480168091D2D
:10346000BD480068FFF70EFD0CE0B1480168091D7A
:10347000BA480068FFF706FDB9480068844201D2E7
:10348000B748046010BDAE480068401CAC490860F5
:1034900070472DE9F04704460E464FF0000954B935
:1034A00000BF502080F31188BFF34F8FBFF36F8FA1
:1034B00000BF00BFFEE70EB1012000E0002050B9C0
:1034C00000BF502080F31188BFF34F8FBFF36F8F81
:1034D00000BF00BFFEE79A48006808B9012000E07D
:1034E000002050B900BF502080F31188BFF34F8FE8
:1034F000BFF36F8F00BF00BFFEE7FFF7C4FF954823
:10350000D0F80080206885192068404507D92068D8
:10351000A8420BD9454509D94FF0010906E02068BA
:10352000A84201D8454501D94FF001092560B9F1FC
:10353000000F13D07E480068001DFFF7BDFC50B996
:103540007B48006890F82C10012088407F4909686A
:1035500081437E4801602846FFF776FFFFF704FFAE
:1035600007463FB94FF0805079490860BFF34F8F4D
:10357000BFF36F8FBDE8F08770B5044600266CB3CB
:103580006F48006808B9012000E0002050B900BF72
:10359000502080F31188BFF34F8FBFF36F8F00BFB0
:1035A00000BFFEE7FFF76FFF6A4800680519604833
:1035B0000068001DFFF780FC50B95D48006890F876
:1035C0002C10012088406149096881435F480160EF
:1035D0002846FFF739FFFFF7C7FE06463EB94FF012
:1035E00080505B490860BFF34F8FBFF36F8F70BD92
:1035F00070B5044601F059F814B94D48006800E070
:1036000020460646F56A01F077F8284670BD2DE998
:10361000F041054601F0A5F800BF5021EFF31180FD
:1036200081F31188BFF34F8FBFF36F8F00BF044644
:1036300015B93F48006800E028460746FE6A00BF0B
:1036400084F3118800BF3046BDE8F0812DE9F047D2
:1036500080460D464FF00009032D01D2012000E005
:10366000002050B900BF502080F31188BFF34F8F66
:10367000BFF36F8F00BF00BFFEE7032D00D302250D
:1036800001F013F8B8F1000F02D12948006800E0FA
:1036900040460446E66AAE426DD0B5420BD9244896
:1036A000006884420DD022480068C06AA84208D849
:1036B0004FF0010905E01E480068844201D14FF037
:1036C0000109E76AE562A06900F0004010B9C5F1A0
:1036D0000300A06107EB8701164A02EB81016069D4
:1036E000884201D1012000E00020E0B1201DFFF759
:1036F000E3FB30B90120B8401449096881431348FD
:10370000016094F82C100120884010490968084392
:103710000E490860E16A01EB8101064A02EB810073
:10372000211DFFF7A3FBB9F1010F23D11AE022E01D
:103730002400002010020020440000204800002047
:103740005800002034000020740200203C000020BB
:1037500004ED00E0380000202C00002028000020AC
:10376000540000204FF08050F9490860BFF34F8F9C
:10377000BFF36F8F00BF00F0BFFFBDE8F087F548D3
:10378000006818B10120F449086032E00020F249D5
:103790000860F2480068B0FA80F0C0F11F0101EB48
:1037A0008100EF4A52F8200008B1012000E000201B
:1037B00050B900BF502080F31188BFF34F8FBFF383
:1037C0006F8F00BF00BFFEE701EB8102E44B03EB0C
:1037D000820042685268426000F1080243689342E6
:1037E00002D14268526842604268D268DD4B1A607A
:1037F00000BF704770B5054600F057FF15B9D948AE
:10380000006800E028460446201DFFF755FB78B904
:10381000E06A00EB8000D24951F8200040B994F8EA
:103820002C1001208840CD4909688143CB480160B4
:10383000A06A18B104F11800FFF73EFB211DCA4829
:10384000FFF714FB00F058FFC648006884422AD1F5
:10385000C6480068D0B1BF48006808B9012000E040
:10386000002050B900BF502080F31188BFF34F8F64
:10387000BFF36F8F00BF00BFFEE74FF08050B44929
:103880000860BFF34F8FBFF36F8F15E0B648006835
:10389000B7490968884203D10020B24908600BE0AB
:1038A000FFF76DFF08E0B148006828B100F0FDFEA9
:1038B000FFF732FC00F020FF70BD10B5024600207B
:1038C000114652B900BF502383F31188BFF34F8FC5
:1038D000BFF36F8F00BF00BFFEE7A34C4B69A3424D
:1038E00001D1012300E0002373B1A24C8B6AA342F3
:1038F00001D1012300E0002333B98B6A0BB9012306
:1039000000E0002303B1012010BD70B505462C4630
:1039100055B900BF502080F31188BFF34F8FBFF31C
:103920006F8F00BF00BFFEE77CB38E480068844203
:103930002BD000F0BAFE2046FFF7BFFF012822D1AE
:10394000201DFFF7B9FA94F82C1001208840834914
:103950000968084381490860E16A01EB8101804AF6
:1039600002EB8100211DFFF781FA7E49E06A0968B8
:10397000C96A884207D34FF0805075490860BFF389
:103980004F8FBFF36F8F00F0B7FE70BD2DE9F04190
:1039900006460027344656B900BF502080F31188F0
:1039A000BFF34F8FBFF36F8F00BF00BFFEE700F084
:1039B000D8FE00BF5021EFF3118081F31188BFF3CF
:1039C0004F8FBFF36F8F00BF05462046FFF775FF8F
:1039D000012824D15F480068E0B96249E06A0968BB
:1039E000C96A884200D30127201DFFF765FA94F8C1
:1039F0002C1001208840594909680843574908603C
:103A0000E16A01EB8101564A02EB8100211DFFF7BB
:103A10002DFA04E004F118015648FFF727FA00BF19
:103A200085F3118800BF3846BDE8F08110B5044623
:103A3000206B00F0D4FF204600F0D1FF10BD70B520
:103A400023E0FFF720FD4C48006808B9012000E0A2
:103A500000200546FFF788FCBDB900F026FE464869
:103A6000C068C468201DFFF727FA41480068401E5F
:103A70003F49086041480068401E4049086000F026
:103A80003BFE2046FFF7D2FF00BF3C4800680028FD
:103A9000D7D170BD00BFFFF7D2FF314800680128C1
:103AA000F9D94FF080502A490860BFF34F8FBFF318
:103AB0006F8FF0E71FB50020009001900290034641
:103AC00080222FA103903048FFF77CFA0446012C96
:103AD00015D100BF502080F31188BFF34F8FBFF383
:103AE0006F8F00BF4FF0FF302849086001201F4949
:103AF000086000202649086000F032FD0BE054B950
:103B000000BF502080F31188BFF34F8FBFF36F8F3A
:103B100000BF00BFFEE71FBD10B500BF502080F3FF
:103B20001188BFF34F8FBFF36F8F00BF00200F4985
:103B3000086000F0A5FD10BD15490868704770B514
:103B400000F00FFE002512480468204670BD0000FA
:103B500004ED00E058000020480000203C00002058
:103B600010020020240000209C02002040000020C1
:103B70003400002074020020880200203000002061
:103B800049444C4500000000953A000854000020CC
:103B900038000020F848006870470246002101E024
:103BA000521C491C1078A528FAD0890888B27047A1
:103BB0002DE9F04706460C4690460025206800286F
:103BC0004AD0204641684968416000F108014268D6
:103BD0008A4202D14168496841604168D1F80C903D
:103BE00000BF204641684968416000F10801426811
:103BF0008A4202D14168496841604168CF6806EB5A
:103C00004510076007F1340006EB45114860786CF9
:103C100006EB4511886006EB451080F80C80F86AC9
:103C200006EB45110861B8F1030F05D1B86A18B168
:103C3000022006EB45110873002006EB4511486190
:103C400006EB45118861386BFFF7A7FF06EB4511BE
:103C500088836D1C4F45C4D12846BDE8F0872DE907
:103C6000F04105468846164600240327FFF70BFC63
:103C7000C148006880452FD300BF7F1E07EB870235
:103C8000BE4B03EB820105EB44100122FFF790FFCE
:103C90000444002FF1D105EB44100222B849096811
:103CA000FFF786FF044405EB44100222B54909687A
:103CB000FFF77EFF044405EB44100422B249FFF7EE
:103CC00077FF044405EB44100322B049FFF770FF6F
:103CD00004440EB100203060FFF746FB2046BDE8EB
:103CE000F08170B505460C4655B900BF502080F3F1
:103CF0001188BFF34F8FBFF36F8F00BF00BFFEE788
:103D0000A348016818312846FFF7BCF8A0480068AE
:103D1000001DFFF7D1F850B99D48006890F82C10AD
:103D2000012088409B49096881439A480160601CD2
:103D300030B997480168091D9448FFF797F805E0E6
:103D40009548006806193046FFF77EFB70BD2DE9E7
:103D5000F04105460E46144655B900BF502080F389
:103D60001188BFF34F8FBFF36F8F00BF00BFFEE717
:103D70008A48006808B1012000E0002050B900BF67
:103D8000502080F31188BFF34F8FBFF36F8F00BFB8
:103D900000BFFEE746F000407D49096888617C4825
:103DA000016818312846FFF761F879480068001D5E
:103DB000FFF782F850B97648006890F82C1001207F
:103DC000884074490968814372480160601C30B9B9
:103DD0006F480168091D6D48FFF748F805E06E4817
:103DE000006807193846FFF72FFBBDE8F08170B572
:103DF0000646F068C46854B900BF502080F31188AB
:103E0000BFF34F8FBFF36F8F00BF00BFFEE704F11A
:103E10001800FFF751F861480068A8B9201DFFF7A6
:103E20004BF894F82C10012088405A49096808433F
:103E300058490860E16A01EB8101504A02EB8100B8
:103E4000211DFFF713F804E004F118015448FFF7AF
:103E50000DF84F49E06A0968C96A884204D901250A
:103E600001205049086000E00025284670BD2DE97A
:103E7000F04105460F464948006808B1012000E0BE
:103E8000002050B900BF502080F31188BFF34F8F3E
:103E9000BFF36F8F00BF00BFFEE747F00040286010
:103EA000EC6854B900BF502080F31188BFF34F8FE6
:103EB000BFF36F8F00BF00BFFEE72846FEF7FCFF91
:103EC000201DFEF7F9FF94F82C100120884031499D
:103ED000096808432F490860E16A01EB8101274A1C
:103EE00002EB8100211DFEF7C1FF2949E06A096844
:103EF000C96A884204D9012601202A49086000E0E5
:103F000000263046BDE8F08150B900BF502181F352
:103F10001188BFF34F8FBFF36F8F00BF00BFFEE765
:103F20002149096801601C4909684160704770B502
:103F300004460D4654B900BF502080F31188BFF3EA
:103F40004F8FBFF36F8F00BF00BFFEE755B900BFB3
:103F5000502080F31188BFF34F8FBFF36F8F00BFE6
:103F600000BFFEE700F0A1FB0B4803682868401C77
:103F7000E0B9002634E000003400002010020020E8
:103F8000280000202C000020880200209C02002035
:103F9000240000203C0000203800002058000020B1
:103FA00074020020480000204C000020FE492068D8
:103FB0000968884204D06068984201D801260FE061
:103FC0006068181A2968884209D228686168591AF5
:103FD000401A28602046FFF797FF002600E00126E0
:103FE00000F08AFB304670BD0120F0490860704740
:103FF000014611B10A46906C00E00020704708B1FC
:10400000024691647047EA4909688869E849096885
:10401000C96AC1F10301E64A1268916170472DE94E
:10402000F04106460C4600F040FBE1480068C06CD9
:1040300068BB0120DE49096881F850003CB3DC48C8
:104040000068001DFEF738FF50B9D948006890F8A5
:104050002C1001208840D74909688143D548016068
:10406000601C30B9D2480168091DD348FEF7FEFE36
:1040700005E0D248006807193846FFF7E5F94FF028
:104080008050CF490860BFF34F8FBFF36F8F00F0B0
:1040900033FB00F00AFBC6480068C56C65B126B169
:1040A0000020C3490968C86406E0C149096801F1F4
:1040B0004C00C96C491E01600020BD49096881F8A7
:1040C000500000F019FB2846BDE8F0812DE9F047CB
:1040D0000746884615461C4600F0E7FAB4480068D3
:1040E00090F85000022835D0B149096801F14C0020
:1040F000C96CB94301600120AD49096881F85000DD
:1041000044B3AB480068001DFEF7D6FE50B9A8487E
:10411000006890F82C1001208840A6490968814366
:10412000A4480160601C30B9A1480168091DA2487B
:10413000FEF79CFE06E0A148006800EB0409484633
:10414000FFF782F94FF080509D490860BFF34F8F11
:10415000BFF36F8F00F0D0FA00F0A7FA1DB19448BA
:104160000068C06C28609248006890F850000128F0
:1041700001D1002608E08E49096801F14C00C96CA4
:1041800021EA08010160012600208949096881F8B7
:10419000500000F0B1FA3046BDE8F0872DE9F04755
:1041A00006460D46174698464FF0010A56B900BF1D
:1041B000502080F31188BFF34F8FBFF36F8F00BF84
:1041C00000BFFEE7344600F070FAB8F1000F02D0ED
:1041D000E06CC8F8000094F85090022084F8500079
:1041E000052F17D2DFE807F01503070B0D00E06C71
:1041F0002843E0640EE0E06C401CE0640AE0E56403
:1042000008E0B9F1020F01D0E56401E04FF0000AC7
:1042100000E000BF00BFB9F1010F33D1201DFEF750
:104220004BFE94F82C10012088406249096808432D
:1042300060490860E16A01EB8101624A02EB81009A
:10424000211DFEF713FEA06A08B9012000E000203E
:1042500050B900BF502080F31188BFF34F8FBFF3D8
:104260006F8F00BF00BFFEE75149E06A0968C96A65
:10427000884207D94FF0805051490860BFF34F8FF3
:10428000BFF36F8F00F038FA5046BDE8F0872DE994
:10429000F84F07460E4690469946DDF828B00120B3
:1042A000009057B900BF502080F31188BFF34F8FA3
:1042B000BFF36F8F00BF00BFFEE700F052FA3C462D
:1042C00000BF5021EFF3118081F31188BFF34F8FAE
:1042D000BFF36F8F00BF0546B9F1000F02D0E06C4D
:1042E000C9F8000094F850A0022084F85000B8F1FA
:1042F000050F17D2DFE808F01503070B0D00E06C7F
:104300003043E0640EE0E06C401CE0640AE0E664E8
:1043100008E0BAF1020F01D0E66401E0002000904D
:1043200000E000BF00BFBAF1010F3AD1A06A08B99E
:10433000012000E0002050B900BF502080F3118818
:10434000BFF34F8FBFF36F8F00BF00BFFEE71E4864
:104350000068A8B9201DFEF7AFFD94F82C100120CD
:10436000884014490968084312490860E16A01EB72
:104370008101144A02EB8100211DFEF777FD04E064
:1043800004F118011148FEF771FD0949E06A096856
:10439000C96A884205D9BBF1000F02D00120CBF8D1
:1043A000000000BF14E000004C0000204800002086
:1043B000240000203C0000209C0200203800002047
:1043C00004ED00E0100200205800002074020020DC
:1043D00085F3118800BF0098BDE8F88F2DE9F04102
:1043E00005460F4655B900BF502080F31188BFF332
:1043F0004F8FBFF36F8F00BF00BFFEE700F0B1F932
:104400002C4600BF5021EFF3118081F31188BFF3D8
:104410004F8FBFF36F8F00BF064694F85080022085
:1044200084F85000E06C401CE064B8F1010F37D113
:10443000A06A08B9012000E0002050B900BF502058
:1044400080F31188BFF34F8FBFF36F8F00BF00BFA2
:10445000FEE723480068A8B9201DFEF72DFD94F85B
:104460002C10012088401F49096808431D49086035
:10447000E16A01EB81011C4A02EB8100211DFEF77C
:10448000F5FC04E004F118011848FEF7EFFC1849A8
:10449000E06A0968C96A884202D90FB10120386010
:1044A00000BF86F3118800BFBDE8F08170B50446F7
:1044B000264616B90E48006800E03046064600F071
:1044C000F4F896F85000022804D1002086F8500035
:1044D000012500E0002500F00FF9284670BD00001E
:1044E000580000203C000020100200207402002030
:1044F00024000020B6480068401C08B9012000E0F4
:10450000002050B900BF502080F31188BFF34F8FB7
:10451000BFF36F8F00BF00BFFEE700BF502080F3E6
:104520001188BFF34F8FBFF36F8F00BF00BFFEE74F
:10453000001F4FF080730360001F0160001FA54B38
:10454000036014380260001F6FF00203036020381C
:104550007047A1484FF0E02148610720086170478B
:104560001CB59E4800689E49884201D0012000E0A9
:10457000002050B900BF502080F31188BFF34F8F47
:10458000BFF36F8F00BF00BFFEE7944800689449F7
:10459000491E884201D0012000E0002050B900BF30
:1045A000502080F31188BFF34F8FBFF36F8F00BF90
:1045B00000BFFEE78B49084600780190FF200A46BD
:1045C00010700846007800909DF8000000F0F000A0
:1045D0009DF80020904201D1012000E0002050B958
:1045E00000BF502080F31188BFF34F8FBFF36F8F50
:1045F00000BF00BFFEE79DF8000000F050007A4ABF
:1046000010700720794A106009E078480068401E61
:10461000764A10609DF800004006000E00909DF85C
:10462000000000F080008028EFD070480068000291
:104630006E4A10601046008800F4E0601060694A1D
:104640000198107065482030006840F4700063499C
:10465000203108600846006840F070400860FFF7AD
:1046600078FF00205A490860FBF7B8FD60480068F1
:1046700040F040405E490860FBF7A0FD00201CBDF3
:1046800053480068B0F57A7F01D1012000E0002096
:1046900050B900BF502080F31188BFF34F8FBFF394
:1046A0006F8F00BF00BFFEE7704700BF502080F350
:1046B0001188BFF34F8FBFF36F8F00BF444800686E
:1046C000401C4349086008460068012813D143484C
:1046D000001D0068C0B208B9012000E0002050B9F8
:1046E00000BF502080F31188BFF34F8FBFF36F8F4F
:1046F00000BF00BFFEE770473548006850B900BFF3
:10470000502080F31188BFF34F8FBFF36F8F00BF2E
:1047100000BFFEE72E480068401E2D49086008468D
:10472000006820B9002080F3118800BF00BF7047E7
:1047300010B500BF5020EFF3118180F31188BFF353
:104740004F8FBFF36F8F00BFFEF758FD20B14FF0C2
:1047500080502249091D0860002080F3118800BFA5
:1047600010BD70B5FBF772FD0446102C16D304F192
:10477000E02090F8F0531C480078854201DB0120CE
:1047800000E0002050B900BF502080F31188BFF333
:104790004F8FBFF36F8F00BF00BFFEE70F480C3095
:1047A000006800F4E06011490968884201D80120DE
:1047B00000E0002050B900BF502080F31188BFF303
:1047C0004F8FBFF36F8F00BF00BFFEE770BD0000CB
:1047D0005C000020F54400083F7E050000ED00E08D
:1047E00071C20F4100E400E060000020640000207E
:1047F00034EF00E010B501469F4800E00068036810
:104800008B42FBD30246436813448B4204D1436876
:104810004C682344436001460A464B6813440468CD
:10482000A34211D1954C03682468A34208D04B6879
:104830000468646823444B6003681B680B6005E0F0
:104840008E4B1B680B6001E003680B60884200D050
:10485000016010BD30B54FF40043894800F00704F3
:104860002CB1C01D20F00700854C041B1B1B024609
:10487000814C22600024804D6C60D018083820F0F4
:1048800007007E4C206000247C4D2D686C607B4DC1
:104890002D682C601146441A4C60784C24680C60DA
:1048A000784D4C682C60784D4C682C604FF000447B
:1048B000764D2C6030BD2DE9F04104464FF00008E4
:1048C000FEF7E1FD6D48006808B9FFF7C3FF6F48C8
:1048D0000068204000286BD1D4B1083404F00700F0
:1048E000B0B104F00700C0F10800044404F0070070
:1048F00008B9012000E0002050B900BF502080F32B
:104900001188BFF34F8FBFF36F8F00BF00BFFEE76B
:10491000002C4DD05C480068844249D8564E304641
:10492000056801E02E462D686868A04202D228681A
:104930000028F7D151480068854239D0306800F12D
:104940000808286830606868001B102819D92F19DA
:1049500007F0070008B9012000E0002050B900BFAF
:10496000502080F31188BFF34F8FBFF36F8F00BFCC
:1049700000BFFEE76868001B78606C603846FFF790
:1049800039FF414968680968081A3F4908600846C4
:1049900000683C490968884203D23B4800683949AD
:1049A00008603A4968680968084368600020286020
:1049B000FEF7DAFC08F0070008B9012000E000204B
:1049C00050B900BF502080F31188BFF34F8FBFF361
:1049D0006F8F00BF00BFFEE74046BDE8F08170B5B5
:1049E00006463546002E3FD0083D2C4627496068D4
:1049F0000968084008B1012000E0002050B900BF5C
:104A0000502080F31188BFF34F8FBFF36F8F00BF2B
:104A100000BFFEE7206808B9012000E0002050B97F
:104A200000BF502080F31188BFF34F8FBFF36F8F0B
:104A300000BF00BFFEE7154960680968084098B1EB
:104A4000206888B911496068096888436060FEF78A
:104A50001AFD0D496068096808440B490860204642
:104A6000FFF7C8FEFEF780FC70BD0748006870477E
:104A700004480068704770476800002070000020FC
:104A8000B002002078000020740000207C0000208C
:104A90001FB500200123CDE90030029003464FF4FA
:104AA000806218A103901A48FEF78CFA00200123B7
:104AB000CDE90030029003464FF4806215A10390C7
:104AC0001748FEF77FFA00200223CDE9003002905C
:104AD00003464FF4007213A103901548FEF772FAD3
:104AE0001FBD012080F3108800BF00F0E5FBFFF739
:104AF000CFFFFEF7DFFF0F4807F0B4FF00F050FCD8
:104B000000BFFEE76F735461736B446F6700000072
:104B1000C54B00086F735461736B4D7174000000D6
:104B2000754D00086F735461736B57656200000028
:104B3000514D000838DB000810B51A4807F092FF05
:104B400010BD04E0184807F08DFF00F01BF8F9E7EE
:104B500004E0164807F086FF00F014F8F9E704E0D7
:104B6000134807F07FFF00F00DF8F9E704E0114863
:104B700007F078FF00F006F8F9E710B50E4807F0E7
:104B800071FF10BDBFF34F8F0C48006800F4E06068
:104B90000B490843001D09490860BFF34F8F00BF50
:104BA000FEE700007CDB000884DC0008D0DB0008A6
:104BB0003CDD0008E0DC00082CDC00080CED00E027
:104BC0000000FA05A3E001F005F8E8B150480068DC
:104BD000401C4F4908600846006841F2883188420D
:104BE00015D94FF4F06001F03CFD4FF4A06001F0E6
:104BF00038FD4FF4206001F034FD4FF4207001F0D7
:104C000030FD00F0CDFB02E0002041490860FEF7D6
:104C100093FF40490968401AB0F57A7F38D3FEF710
:104C20008BFF3C4908603C48007806282FD2DFE81B
:104C300000F0030A11181F269623142204210020D5
:104C400000F06EFE23E0962314220321002000F0E2
:104C500067FE1CE0962314220321002000F060FE72
:104C600015E0962314220221002000F059FE0EE0E8
:104C7000962314220221002000F052FE07E04FF498
:104C8000FA731A460121002000F04AFE00BF06E038
:104C9000FEF752FF2149884201D900F081FBFEF75F
:104CA0004BFF1F490968401AB0F5FA7F05D3FEF79C
:104CB00043FF1B49086002F098F800F0F0FD04463D
:104CC000FEF7E1FBB4F5804F03DB214615A007F0AA
:104CD000C9FEB4F5805F0AD94FF480511B4800F03B
:104CE000A5FD4FF48051194801F06CFE09E0002C3D
:104CF00007DD2146154800F099FD2146134801F0D3
:104D000061FEFEF731FB0120FEF736FC00BF5AE7DB
:104D100084000020880000209000002000840C24E3
:104D20008C0000200A6170706C653A206275665FC5
:104D3000726561645F6669666F5F7278206F757413
:104D4000736964653A20256420200A0036830020B8
:104D50000CE007480078012805D1FEF794FB05F028
:104D60005DFDFEF701FB0A20FEF706FCF1E70000FF
:104D700080000020C0B095E1FEF7DEFED44909684E
:104D8000401AB0F5FA6F07D3FEF7D6FED049086097
:104D900002F01BFACF490870CF480078092814D2D6
:104DA000DFE800F00514213E87C4F1F0EF00002099
:104DB000CA490870CA4800F0B3FA0C22C849C94869
:104DC00003F047FB0120C449087067E10120C34993
:104DD000087002F02DF94FF47A70FEF7CDFB022037
:104DE000BD4908705AE10020BC490870BEA007F018
:104DF00039FE02F0EAF9B749087008460078012840
:104E000003D10320B449087009E0C3A007F02AFECB
:104E100040F6C410FEF7B0FB0220AF4908703DE138
:104E20000120AE490870C4A007F01CFEA948007814
:104E300038B940F6C410FEF79FFB0220A64908705F
:104E40002CE1CC48C07D01282FD104F0C2F940B13B
:104E50000020C9490870C949086004209E490870AB
:104E600026E0C64801680068401CC44A1060C44877
:104E7000814203D108209849087019E0BF480168B1
:104E80000068401CBD4A1060BD486430814205D3B3
:104E900000201146086000F083FA09E06420FEF764
:104EA0006BFB03208C49087002E004208A490870DB
:104EB000F4E0022089490870B2A007F0D3FD8548CC
:104EC000007838B940F6C410FEF756FB022082493C
:104ED0000870E3E0B748C079012823D1B54808300D
:104EE00005F088FF30B10020B349086005207A49F9
:104EF00008701AE0B04801680068401CAE4A1060B3
:104F0000B1F5167F06D900201146086008207249C5
:104F100008700AE04FF4FA70FEF72EFB04206E4989
:104F2000087002E005206C490870B7E003206B4967
:104F30000870A2A007F096FD6648007838B940F6E0
:104F4000C410FEF719FB022063490870A6E0A94AC5
:104F5000911F6448801F06F048F830B10020A64930
:104F6000086006205C49087098E0A3480168006862
:104F7000401CA14A1060F02906D10820564908704B
:104F800012E07FE041E010E09B480068F12802D980
:104F900000F006FA08E006F00AF84FF4FA70FEF79F
:104FA000EBFA05204C49087078E004204B49087062
:104FB00092A007F057FD4748007838B940F6C41072
:104FC000FEF7DAFA02204449087067E000219AA04F
:104FD00006F0B6F818B901203F4908705EE00021DC
:104FE00097A006F0ADF818B901203B49087055E0CC
:104FF000002196A006F0A4F818B9012036490870DF
:105000004CE007203449087048E005203349087017
:105010003048007838B940F6C410FEF7ADFA0220E7
:105020002D4908703AE0FEF787FD8A490968401A61
:105030008949884208D3FEF77FFD8649086006F05B
:10504000B4F986A007F00EFD0CE001213FA800F0A6
:105050002FFB9DF8FC10684606F0B6FE10B16846BE
:1050600007F05AF800F05DFB0028EED1854806F005
:10507000DCF88448007820B901208249087016497C
:1050800008700BE00820154908707FA007F0EAFCC3
:1050900001F0DFFF00201049087000BF00BF0220B0
:1050A000FEF76AFA68E670B504460D4616467E4875
:1050B00001680068401C7C4B18607CA007F0D2FCA3
:1050C0000A231A460121002000F02AFC70BD0000CE
:1050D0009800002080000020910000209000002017
:1050E00036930020B30000200A6170706C653A208E
:1050F0006D717474207461736B3A20636865636BBF
:10510000696E6720706879206C696E6B696E672EB6
:105110002E2E200A000000000A6170706C653A2093
:10512000706879206F66666C696E652053544154CF
:10513000455F5048590A00000A6170706C653A205A
:105140006D717474207461736B3A206765742069A3
:10515000702066726F6D206468637020736572766C
:105160006572206F7220656570726F6D2E2E2E2015
:105170000A0000000D83002038010020A400002058
:1051800020A107000A6170706C653A206D7174741B
:10519000207461736B3A2067657420646E732066B7
:1051A000726F6D20646E73207365727665722E2E39
:1051B0002E200A00D1820020A80000200A61707011
:1051C0006C653A206D717474207461736B3A20744D
:1051D000727920746F20636F6E6E65637420746FD4
:1051E000206D717474207365727665722E2E2E2078
:1051F0000A0000002E830020A00000200A617070C9
:105200006C653A206D717474207461736B3A20740C
:10521000727920746F2073756263726962652066AB
:10522000726F6D206D717474207365727665722E65
:105230002E2E200A0000000054505F41434B000016
:1052400054505F414C41524D0000000054505F47A4
:10525000505253009400002080C3C9010A6170704D
:105260006C653A2073656E642061206865617274B4
:10527000626561742E2E2E2E2E2E2E2E2E2E2E0A8E
:10528000000000009C0000200A6170706C653A20EC
:105290007475726E20746F207735353030207265EA
:1052A000626F6F74200A0000CC0000206170706C87
:1052B00065202564200A000010B502F09FFE00F072
:1052C00027FC01F0F5FB01F073FC00F06BFC00F033
:1052D0004DFB00F04DFE00F0ADFD054800F032F84A
:1052E00000F093FF01F07EFA01F068FD10BD0000B0
:1052F000F400002003469A48006818609848001D92
:10530000006808609648083000681060186818B98E
:10531000086808B9106808B1012070470020FCE750
:1053200030B58F4C2368241D2168241D22688D4CC4
:1053300023606160A2602568056065684560A468B7
:10534000846030BD30B589B004461821684606F047
:105350007EFF06AA07A908A8FFF7CCFFF0B10898BE
:10536000009007980190069802900898039007987B
:105370000490069805901821684601F04FFD0546F7
:105380004C20207000206070280EA070280CE07067
:10539000280A20716571012009B030BD0020FBE7AB
:1053A00071A007F05FFB00BFBFF34F8F7548006827
:1053B00000F4E06074490843001D72490860BFF3BF
:1053C0004F8F00BF00BFFEE710B56548123004885C
:1053D00021466EA007F046FB74A007F043FB7F4810
:1053E00001687FA007F03EFB10BD014608887047AA
:1053F00001460868704730B503460C461546002242
:1054000006E01846FFF7F4FF44F822001B1D521C6B
:10541000AA42F6D330BD01460020794A914203D218
:10542000B1F1006F00D336E0764A914204D2744A5B
:10543000914201D308202EE0734A914204D2714A6E
:10544000914201D3102026E0704A914204D26E4A64
:10545000914201D318201EE06D4A914204D26B4A5A
:10546000914201D3202016E06A4A914204D2684A50
:10547000914201D328200EE0674A914204D2654A46
:10548000914201D3302006E0644A914203D2624A3D
:10549000914200D33820704770B504462046FFF78C
:1054A000BAFF0546FBF79EF802212846FBF7EEF807
:1054B000092803D0FBF7A3F8002070BDFBF79FF885
:1054C0000120FAE72DE9F04104460E461746002573
:1054D00013E056F825102046FBF7F1F9092809D109
:1054E00056F825102068884202D00020BDE8F081DF
:1054F000241D01E00020F9E76D1CBD4203D247489E
:10550000401F8442E5D90120F0E710B5FBF76AF8A7
:10551000F320FBF768FB10BD70B5002409E03D499E
:105520006018FFF765FF054629463DA007F09AFA87
:10553000241DB4F5003FF2D370BD10B5FBF735FB69
:105540000446082C0BD0FBF736FA3120FBF74BFB57
:105550000820FBF7EEFAFBF7F9FAFBF739FA10BD72
:10556000107AFF1F449300200A6170706C653A2026
:1055700073797374656D207265626F6F7421200A90
:10558000000000000CED00E00000FA055468652002
:105590006368697020666C6173682073697A65203E
:1055A00069733A202564204B62200A005468652004
:1055B000636F6465206275726E65642064617465F2
:1055C0003A20536570202035203230313820204079
:1055D000202031353A33333A31360A0000000020BA
:1055E0005468652053797374656D20436F7265202C
:1055F000436C6F636B3A202564487A2E0A000000E2
:10560000004000080080000800C0000800000108F9
:105610000000020800000408000006080000080856
:105620002530385820000000F0B502460024002341
:105630002CE05848007800F0010008B10020F0BDCF
:105640002046651CACB2155C534806880088401C97
:10565000514F38805148855538460088C0F30B00BB
:105660003D4628804B48007820F00200494D2870C4
:10567000581C83B238460088494D2D88A84205D170
:105680004448007840F00100424D2870081EA1F106
:105690000105A9B2CDD11846D1E73F48008840495D
:1056A00008803C48007840F002003A490870704792
:1056B00070B50246002400232CE039480088364D9E
:1056C0002D88A8420CD13348007800F0010038B989
:1056D0003048007840F002002E4D2870002070BD48
:1056E0002F4805880088401C2D4E30802B48465D91
:1056F0002046651CACB2165429480088C0F30B0044
:10570000274D2880581C83B22248007820F00100E1
:10571000204D2870081EA1F10105A9B2CDD118466F
:10572000DDE71F4800881C49098888420FD11948C5
:10573000007800F0010038B91648007840F0020007
:1057400014490870002070474FF48050FBE712485E
:10575000008813490988884206DD0F4800881049EF
:105760000988401A80B2EEE70D480088C0F58050E5
:1057700009490988084480B2E5E70146002004E0B1
:10578000064A125C0A54421C90B2B0F5805FF7DB07
:1057900070470000D0000020D2000020509300206D
:1057A000D4000020F0B50246002400232CE0584825
:1057B000007800F0010008B10020F0BD2046651C13
:1057C000ACB2155C534806880088401C514F3880A5
:1057D0005148855538460088C0F30D003D46288065
:1057E0004B48007820F00200494D2870581C83B2C5
:1057F00038460088494D2D88A84205D14448007894
:1058000040F00100424D2870081EA1F10105A9B227
:10581000CDD11846D1E73F480088404908803C4830
:10582000007840F002003A490870704770B50246AF
:10583000002400232CE039480088364D2D88A842EA
:105840000CD13348007800F0010038B930480078B6
:1058500040F002002E4D2870002070BD2F480588B2
:105860000088401C2D4E30802B48465D2046651C2C
:10587000ACB2165429480088C0F30D00274D28808B
:10588000581C83B22248007820F00100204D287077
:10589000081EA1F10105A9B2CDD11846DDE71F48C8
:1058A00000881C49098888420FD11948007800F007
:1058B000010038B91648007840F002001449087019
:1058C000002070474FF48040FBE7124800881349DE
:1058D0000988884206DD0F48008810490988401A67
:1058E00080B2EEE70D480088C0F58040094909887C
:1058F000084480B2E5E70146002004E0064A125C55
:105900000A54421C90B2B0F5804FF7DB704700009C
:10591000D6000020D800002050A30020DA0000208C
:10592000F0B50A2A03DB0A2692FBF6F600E01646DB
:10593000B4B20A2B03DB0A2693FBF6F600E01E4600
:10594000B5B248B9614E3170614E3480614E3580D8
:105950000026614F3E7000BF00BFF0BD00B5FA23C6
:105960001A4605210020FFF7DBFF00BD1CB5012111
:105970001020FBF787FC01208DF8040000208DF833
:1059800006008DF8070002208DF805000003009046
:1059900069465248FBF7B8F94FF400514F48FBF7FE
:1059A0002FFAFFF7DBFF4EA007F05CF81CBD10B527
:1059B00004462CB94FF400514848FBF721FA00BFC8
:1059C00000BF10BD10B504462CB94FF40051434838
:1059D000FBF718FA00BF00BF10BD10B504463E48E3
:1059E000005D20B1012815D0022866D164E0374857
:1059F000005D18B901204349085502E000204149E3
:105A000008552046FFF7DEFF01203F49085532497F
:105A1000085553E03C48005D30B33C4830F8140072
:105A2000D0B92A48005D30B93648005D18B9022067
:105A30002949085542E0264830F8140098B320461A
:105A4000FFF7B5FF224830F81400304921F8140060
:105A500000202D4908552EE02C4830F81400401E37
:105A60002A4921F8140026E0284830F81400D8B953
:105A7000184830F81400B0B12046FFF7A3FF1548CE
:105A800030F81400214921F8140001201E4908555E
:105A90001C48005D38B90D48005D20B10B48005D21
:105AA000401E0A49085506E0184830F81400401E08
:105AB000164921F8140001E000E000BF00BF10BD4E
:105AC00010B50020FFF789FF10BD0000DE000020A8
:105AD000E0000020E4000020DC0000200010024074
